:020000040000FA
:1000000083018B139F010313831607309F00850123
:1000100085148601870107158715831285018601DE
:1000200087010030A5000130AF000030A000A10022
:10003000A200A3009630FC200A30A000A100A2007C
:10004000A3004C20071D21286D2911288207C034E8
:10005000F934A434B034993492348234F83480348E
:100060009034FF348834C63486348E34C2348934B4
:10007000C734AB348C34DB34C1348234913499349A
:100080000800DD30AC000130AD00AC0B4528AD0BF5
:100090004528000000000800AF0B5128A6091430C5
:1000A000AF00261C5428A51D87172008262086008F
:1000B00041208713261C5D28251D071721082620AF
:1000C000860041200713261C6628A51C87162208D7
:1000D0002620860041208712261C6F28251C071623
:1000E0002308262086004120071208008330B00034
:1000F000B620C92031080F39A800B10CB10CB10CE1
:10010000B10C31080F39A9008530B000B620C920E4
:1001100031080F39AA00B10CB10CB10CB10C310887
:100120000339AB0008008E30B000B6200030B100BB
:10013000310CE1202908B100B10DB10DB10DB10DA7
:100140002808B1048230B000B620E1202B08B100AD
:10015000B10DB10DB10DB10D2A08B104B113843048
:10016000B000B620E1200511851008000515031325
:100170008316851083120510301CC0288514C228F0
:10018000851000000514B00CB013B00AB00BBB28EA
:10019000080003138316851483120830AC00B101E4
:1001A000B10C051000008518D728B113D828B11755
:1001B000051400000000AC0BD028051005118510B7
:1001C000080003138316851083120930AC00AC0BB2
:1001D000EA28F528051000008510311CF028851448
:1001E000000005140000B10CE72805100000000015
:1001F0000000000005110800AE004C20AE0BFD28E9
:10020000000008000F30FC204C20071904290F3093
:10021000FC2008000F30FC204C2087190C290F30DF
:10022000FC2008000A21762000002808A3002908E5
:10023000A2002A08A1002B08A0000130A5004C2034
:10024000871D2C29A30A2308A4000930A402A40BAB
:100250002B290030A3000A21071D1F292308A8000D
:10026000A50D02214C20871D3F29A20A2208A400C7
:100270000530A402A40B3E290030A2000A21071D6C
:1002800032292208A9000C30A50002214C20871D2C
:100290006329A10A2108A4000930A402A40B532950
:1002A0000030A100A00A2008A4000130A402A40B81
:1002B00062292108A4000330A402A40B62290030A3
:1002C000A000A1000A21071D46292108AA00200834
:1002D000AB000030A500932008000930A7001030C3
:1002E000A1000130A2000A30A000A3003230FC209F
:1002F0004C20071978290F30FC20762000002808B0
:10030000A3002908A2002A08A1002B08A00003309E
:10031000FC20071D7D290830A0001330A1000D30FE
:10032000A2000A30A30002214C20071D98299C2915
:10033000871D942912217D291330A0000D30A100C2
:100340000A30A2000A30A30002214C20071DA52973
:10035000A9290C30A0001630A1001330A2000C30E7
:10036000A30002214C20071DB629E629871DB229CA
:100370001230A0000030A1000A30A2000A30A30011
:100380000A214C20071DC529C829871DC12911280C
:100390001730A0000D30A1000530A2000A30A300E4
:1003A00002214C20071DDE291230A0000030A100E0
:1003B0000A30A2000A30A3000221C129871DD129D9
:1003C0000F30A500FA30FC20112802211330A000C4
:1003D0001730A1001830A2001030A30002214C20D9
:1003E000871DF52987140A218710071DEF29112879
:02400E003A3F37
:00000001FF
