:020000040000FA
:1000000083018B139F010313831607309F00850123
:1000100085148601870107158715831285018601DE
:1000200087010030A5000130AF000030A000A10022
:10003000A200A3003230F4200A30A000A100A200E8
:10004000A3004B20071D21285D2911288207C034F9
:10005000F934A434B034993492348234F83480348E
:100060009034FF348834C63486348E34C2348934B4
:10007000C734AB348C34C1348234913499340800A1
:10008000DD30AC000D30AD00AC0B4428AD0B442886
:10009000000000000800AF0B5028A6090A30AF008E
:1000A000261C5328A51D87172008262086004020DF
:1000B0008713261C5C28251D07172108262086008B
:1000C00040200713261C6528A51C87162208262019
:1000D000860040208712261C6E28251C0716230840
:1000E000262086004020071208008330B000B4208C
:1000F000C72031080F39A800B10CB10CB10CB10CFC
:1001000031080F39A9008530B000B420C72031086C
:100110000F39AA00B10CB10CB10CB10C3108033984
:10012000AB0008008E30B000B4200030B100DF20FA
:100130002908B100B10DB10DB10DB10D2808B10400
:100140008230B000B420DF202B08B100B10DB10D1A
:10015000B10DB10D2A08B104B1138430B000B42040
:10016000DF2005118510080005150313831685107F
:1001700083120510301CBE288514C028851000008D
:100180000514B00CB013B00AB00BB9280800031363
:100190008316851483120830AC00B101B10C051030
:1001A00000008518D528B113D628B1170514000012
:1001B0000000AC0BCE2805100511851008000313B4
:1001C0008316851083120830AC00AC0BE8280800B9
:1001D000051000008510B11FEE28851400000514DD
:1001E0000000B10CE5280800AE004B20AE0BF5284E
:1001F000000008000A30F4204B200719FC280A30C0
:10020000F42008000A30F4204B20871904290A3012
:10021000F42008000221752000002808A300290806
:10022000A2002A08A1002B08A0000130A5004B2045
:10023000871D2429A30A2308A4000930A402A40BC3
:1002400023290030A3000221071D1729A50DFA203C
:100250004B20871D3529A20A2208A4000530A402DC
:10026000A40B34290030A2000221071D28290C30DC
:10027000A500FA204B20871D5729A10A2108A400B8
:100280000930A402A40B47290030A100A00A2008CD
:10029000A4000130A402A40B56292108A4000330B5
:1002A000A402A40B56290030A000A1000221071DC2
:1002B0003A290030A500922008000930A70010302C
:1002C000A1000130A2000A30A000A3003230F420C7
:1002D0004B20071968290A30F420752000002808EF
:1002E000A3002908A2002A08A1002B08A0000330BF
:1002F000F420071D6D290830A0001330A1000D3037
:10030000A2000A30A300A70B86291128FA204B204F
:10031000071D8B298F29871D87290A216D291330F5
:10032000A0000D30A1000A30A2000A30A300A70BE4
:100330009A291128FA204B20071D9B299F290C3050
:10034000A0001530A1001330A2000030A300A70BBD
:10035000AA291128FA204B20071DAB29AF291330F9
:10036000A0001630A1001730A2001030A300A70B88
:10037000BA291128FA204B20071DBB297B291128F7
:02400E003A3F37
:00000001FF
