:020000040000FA
:1000000083018B139F010313831607309F00850123
:1000100085148601870107158715831285018601DE
:1000200087010030A5000130B5000030A000A1001C
:10003000A200A3003230D3200A30A000A100A20009
:10004000A3004B20071D2128EA2811288207C0346D
:10005000F934A434B034993492348234F83480348E
:100060009034FF348834C63486348E34C2348934B4
:10007000C734AB348C34C1348234913499340800A1
:10008000DD30B2000D30B300B20B4428B30B44286E
:10009000000000000800B50B5028A6090A30B50082
:1000A000261C5328A51D87172008262086004020DF
:1000B0008713261C5C28251D07172108262086008B
:1000C00040200713261C6528A51C87162208262019
:1000D000860040208712261C6E28251C0716230840
:1000E000262086004020071208008330B600A72093
:1000F000BA2037080F39A800B70CB70CB70CB70CEB
:1001000037080E39A9008530B600A720BA20370875
:100110000F39AA00B70CB70CB70CB70C3708023967
:10012000AB008730B600A720BA2037080F39AC00E3
:10013000B70CB70CB70CB70C37080339AD00080083
:10014000A7208030B600D2200511851008000515C3
:1001500003138316851083120510361CB1288514ED
:10016000B328851000000514B60CB613B60AB60BFA
:10017000AC28080003138316851483120830B200DC
:10018000B701B70C051000008518C828B713C92897
:10019000B717051400000000B20BC12805100511A7
:1001A000851008000800B4004B20B40BD4280000D0
:1001B00008000A30D3204B200719DB280A30D3204F
:1001C00008000A30D3204B208719E3280A30D320B7
:1001D000080008000930A7001030A1000130A2007B
:1001E0000A30A000A3003230D3204B200719F52895
:1001F0000A30D320752000002808A3002908A20097
:100200002A08A1002B08A0000330D320071DFA28DC
:100210000830A0001330A1000D30A2000A30A30066
:10022000A70B13291128D9204B20071D18296C2949
:10023000871D1429E120752000002808A300290843
:10024000A2002A08A1002B08A0000130A5004B2025
:10025000871D3429A30A2308A4000930A402A40B93
:1002600033290030A300E120071D2729A50DD9203F
:100270004B20871D4529A20A2208A4000530A402AC
:10028000A40B44290030A200E120071D38290C30BE
:10029000A500D9204B20871D6729A10A2108A400A9
:1002A0000930A402A40B57290030A100A00A20089D
:1002B000A4000130A402A40B66292108A400033085
:1002C000A402A40B66290030A000A100E120071DB4
:1002D0004A290030A500FA281330A0000D30A100F3
:1002E0000A30A2000A30A300A70B77291128D920D1
:1002F0004B20071D78297C290C30A0001530A10067
:100300001330A2000030A300A70B87291128D920A1
:100310004B20071D88298C291330A0001630A1001E
:100320001730A2001030A300A70B97291128D9205D
:0A0330004B20071D98290829112809
:02400E003A3F37
:00000001FF
