:020000040000FA
:1000000083018B139F010313831607309F00850123
:1000100085148601870107158715831285018601DE
:1000200087010030A5000130AF000030A000A10022
:10003000A200A30096301D210A30A000A100A2005A
:10004000A3004C20071D2128BA2911288207C0349B
:10005000F934A434B034993492348234F83480348E
:100060009034FF348834C63486348E34C2348934B4
:10007000C734AB348C34DB34C1348234913499349A
:100080000800DD30AC000130AD00AC0B4528AD0BF5
:100090004528000000000800AF0B5128A6091430C5
:1000A000AF00261C5428A51D87172008262086008F
:1000B00041208713261C5D28251D071721082620AF
:1000C000860041200713261C6628A51C87162208D7
:1000D0002620860041208712261C6F28251C071623
:1000E0002308262086004120071208008330B00034
:1000F000D720EA2031080F39A800B10CB10CB10C9F
:10010000B10C31080F39A9008530B000D720EA20A2
:1001100031080F39AA00B10CB10CB10CB10C310887
:100120000339AB000800031783160C1995288312B6
:1001300033088D0034088C0083168C130C15553051
:100140008D00AA308D008C14000000000C1183017A
:1001500008000317831233088D0083168C130C14C8
:1001600083120C08830108008E30B000D7200030C5
:10017000B100310C02212908B100B10DB10DB10D52
:10018000B10D2808B1048230B000D72002212B081D
:10019000B100B10DB10DB10DB10D2A08B104B1130B
:1001A0008430B000D7200221051185100800051504
:1001B00003138316851083120510301CE128851463
:1001C000E328851000000514B00CB013B00AB00B82
:1001D000DC28080003138316851483120830AC0052
:1001E000B101B10C051000008518F828B113F928E9
:1001F000B117051400000000AC0BF1280510051123
:100200008510080003138316851083120930AC0093
:10021000AC0B0B291629051000008510311C112983
:100220008514000005140000B10C08290510000019
:1002300000000000000005110800AE004C20AE0BCD
:100240001E29000008000F301D214C200719252908
:100250000F301D2108000F301D214C2087192D293A
:100260000F301D2108002B21762000002808A30054
:100270002908A2002A08A1002B08A0000130A5002F
:100280004C20871D4D29A30A2308A4000930A4028D
:10029000A40B4C290030A3002B21071D4029230863
:1002A000A800A50D23214C20871D6029A20A220841
:1002B000A4000530A402A40B5F290030A2002B216A
:1002C000071D53292208A9000C30A50023214C202A
:1002D000871D8429A10A2108A4000930A402A40BC7
:1002E00074290030A100A00A2008A4000130A40253
:1002F000A40B83292108A4000330A402A40B8329A2
:100300000030A000A1002B21071D67292108AA00A9
:100310002008AB000030A50008000030B2000A3011
:10032000A1000130A3002B214C20071DA329A30A03
:100330002308A4000430A402A40BA2290130A300C6
:100340000030B2002321871D94292B213208B300ED
:10035000A920A800B30AA920A900B30AA920AA00CD
:10036000B30AA920AB00B30AA9203321B40093201B
:10037000B30A08000930A7001030A1000130A20024
:100380000A30A000A30032301D214C200719C529D6
:100390000F301D21762000002808A3002908A200A4
:1003A0002A08A1002B08A00003301D21071DCA291F
:1003B0000830A0001330A1000D30A2000A30A300C5
:1003C00023214C20071DE529EA29871DE129332136
:1003D000B420CA291330A0000D30A1000A30A200B9
:1003E0000A30A30023214C20071DF729FA29871D75
:1003F000F3298D290C30A0001630A1001330A20083
:100400000C30A30023214C20071D072A372A871D03
:10041000032A1230A0000030A1000A30A2000A30E6
:10042000A3002B214C20071D162A192A871D122AEA
:1004300011281730A0000D30A1000530A2000A30AD
:10044000A30023214C20071D2F2A1230A0000030CA
:10045000A1000A30A2000A30A3002321122A871D1E
:10046000222A0F30A500FA301D2111282321133034
:10047000A0001730A1001830A2001030A3002321E3
:100480004C20871D462A87142B218710071D402AE0
:02049000112831
:02400E003A3F37
:00000001FF
